:100000002500A305160A450A660A3D0A950A330526
:1000100013020600000C2607010C2900A305260A7E
:1000200034024306200A9204120207008705530493
:1000300013020600460572041202070067052C0A27
:1000400092041202070087045304130206004604B8
:100050007204120207006704000813051302060069
:10006000000C0607010C29000008B2051202070067
:10007000000CA707010C29000008930513020600D5
:10008000000C8607010C290000080B0C2F00B80C8F
:100090002E00000852051202070047065A0A3205D0
:1000A000120207002706570A010C3000590A030CF8
:1000B0003000640A3205120207002706620A050CA6
:1000C0003000640A0A0C30004509000811051502C9
:1000D0002D000008D402850A050C3500660953047A
:1000E00013020600460492041202070087053D0928
:1000F00029024306800A7204120207006705840A77
:100100007204120207006704940A010C35006609A4
:1001100053041302060046059204120207008704E6
:100120007204120207006704000869006A00680090
:100130006B001B0243079F0A1A024306B90A100C00
:100140003C0003047803790368036B031B028B00F4
:100150004307AC0A1A0288000307B50A1A02A8006E
:100160000307EB001B02AB00030569036A03FC02F3
:10017000A10A0000000835033403350334033F0CA3
:10018000750115023900140238007B00140C3A0086
:1001900095090A022B00090236000A0237000F02F5
:1001A00039000E0238000A023B0009023A009509A4
:1001B00008020B0143060C0B15023900140238002B
:1001C0007B00140C3A0095090A022B000902360044
:1001D0000A0237000F0239000E0238000A023B0003
:1001E00009023A0095090A02350009023400140296
:1001F000030E36001502000E370036024307080BC7
:1002000037024307080B53041302060046050C0B84
:100210005304130206004604000814024306210B8F
:10022000010C2900BF0C28000400E802140BE902AD
:10023000120B4A0C2800E8021B0B00000400F40219
:06024000100BA305F20AF9
:10040000A304070AA304100AA3042D0AA304350AAF
:10041000A3043D0AA3044A0AA304660AA304450AE6
:10042000A3046A0AA304BB0AA3040D0B6400FF0C17
:100430003200FF0C330068006807220A070C6100D5
:100440000F0C0200040008020200000AA3052902A2
:1004500043064C0A74000209A3050409A3052902F6
:100460004306370A010C34000209A3052D0A0609C8
:10047000A30529024306410A010C34000209A30521
:10048000370A0809A305290243064B0A010C340068
:100490000209A305410A2A0A0A09A305050C350029
:1004A0000C09A30504000D022800060C8D0043066C
:1004B0006A0A050C880043068F0A040C880043066C
:1004C000940A010C88004306A70A030C880043061F
:1004D000B70AE30A1107730A11040E09A3050B0CEE
:1004E0002F00B80C2E000E020F014306860A92045C
:1004F0001202070087055304130206004604140C79
:10050000AE00000C0307010CAF008E0A010C340092
:100510001009A305050C35000C09A305E70A010C19
:1005200034001009A305E70AAE024306AF02010C2E
:100530003500F40C34001209A3050809A3052902AB
:100540004306A60A060C35000C09A305E70A0409B0
:10055000A30529024306B60A530413020600460403
:100560000A09A305030C35000C09A305E70A2E02AE
:100570004307C90A2F024307C90AF00030024306A5
:10058000C40A0E09A305C80A040C35000C09A3050A
:10059000DA0A2F024307DA0AF90C28000E02880053
:1005A0000307DA0AD002DA0A030C3500E80C34003B
:1005B0001209A3050E020F014306E20A0E024306CA
:1005C000EF00EE00E70A050C35000C09A30506094B
:1005D000A30529024306EF0A74001009A305140CB1
:0A05E0003400140AA305520A0300B8
:021FFE00FC0FD6
:00000001FF
;PIC16C505
